:060000000A128A11F32F21
:100A4C0015340A128A119C250A128A110A128A116B
:100A5C0002270A128A11272DF2007008F100710882
:100A6C00F3000130F302031D372D0130F20203199C
:100A7C000800332DF001F1017108803AFF0081303C
:100A8C007F02031D4B2DF430700203180800013057
:100A9C00F0070318F10A0030F107422D83120313FB
:100AAC0007150A128A1140250A128A110A128A1194
:100ABC0040250A128A110A128A1140258312031347
:100ACC0007110800F2008316031385018312031328
:100ADC008514051185110A128A1140250A128A11F2
:100AEC00720883120313880085150A128A11402597
:100AFC008312031385110800F2008316031385017A
:100B0C00831203138510051185110A128A114025D1
:100B1C000A128A11720883120313880085150A12AF
:100B2C008A114025831203138511080083160313C1
:100B3C0085018701880183120313850187018801D0
:100B4C000730831603139F000F300A128A11822577
:100B5C000A128A1138300A128A1182250A128A1155
:100B6C0001300A128A1182250800F5017508031D4F
:100B7C000800831603130510831203130510463067
:100B8C00F4007408F00002300A128A1132250A129D
:100B9C008A1101308316031385000830F4007408A1
:100BAC00F00002300A128A1132250A128A118312BD
:100BBC000313051CE32DF501E52DF501F50A3C3079
:100BCC00F4007408F00002300A128A1132250A125D
:100BDC008A11BC2DF501F601083076020318252E7A
:100BEC000310F50C83160313051083120313051061
:100BFC00000000000000000000000000831603133A
:100C0C000514000000000000000000007C1083129E
:100C1C00031305187C147C18F5170730F4007408BE
:100C2C00F00002300A128A1132250A128A110130A0
:100C3C00F4007408F60708307602031CF72D7508CB
:100C4C000800F700F801083078020318080077084C
:100C5C000139F4007408F60083160313051083128F
:100C6C0003130510000000000000000000007603D4
:100C7C00031D432E8312031305140730F40074086C
:100C8C00F00002300A128A1132250A128A118316D8
:100C9C0003130514000000007708F4000310740C13
:100CAC00F5007508F7000130F4007408F807292ED8
:100CBC00F601F31F682EF209F309F20A0319F30A7D
:100CCC00F601F60AF11F6F2EF009F109F00A03196B
:100CDC00F10A7008710403199C2EF501F50AF11B39
:100CEC00832E01300310F00DF10DFF3E031D782E05
:100CFC000130F4007408F507752E71087302031D9A
:100D0C00892E70087202031C912E7008F202710871
:100D1C00031CF303F30201300310F10CF00CFF3E43
:100D2C00031D922E0130F502031D832E7608031944
:100D3C00A42EF209F309F20A0319F30A7308F1005D
:100D4C007208F0000800F601F11FB32EF009F1094A
:100D5C00F00A0319F10AF601F60AF31FBE2EF20986
:100D6C00F309F20A0319F30A0130F4007408F606C9
:100D7C00F701F801700871040319F52EF501F50A55
:100D8C00F11BD42E01300310F00DF10DFF3E031DAD
:100D9C00C92E0130F4007408F507C62E013003107B
:100DAC00F70DF80DFF3E031DD52E71087302031DC0
:100DBC00E12E70087202031CEA2E7008F202710810
:100DCC00031CF303F302771401300310F10CF00C45
:100DDC00FF3E031DEB2E0130F502031DD42E7608C9
:100DEC000319FD2EF709F809F70A0319F80A780810
:100DFC00F1007708F00008000A128A11BB250A12CC
:100E0C008A11CC300A128A1127260A128A11443010
:100E1C000A128A1127260A128A114630F90079081B
:100E2C00F00002300A128A1132250A128A110A12B3
:100E3C008A11BB250A128A11CC300A128A11272674
:100E4C000A128A11BE300A128A1127260A128A1136
:100E5C000A128A11F0250A128A11F90079088312F4
:100E6C000313A3000A128A11F0250A128A11F90041
:100E7C00790883120313A2002208F900043003102E
:100E8C00F90DFF3E031D452F2308FA000430031013
:100E9C00FA0CFF3E031D4D2F7A087904FB007B08EA
:100EAC00A1002308F90003300310F90DFF3E031DC8
:100EBC005A2F0310790DFA007A08A400653021022C
:100ECC00031C7E2F6430F0000030F1002108F90083
:100EDC00FA017908F2007A08F3000A128A11A9269D
:100EEC000A128A117008FB007B0883120313A100FD
:100EFC000A30F0000030F1002108F900FA017908FD
:100F0C00F2007A08F3000A128A11A9260A128A1131
:100F1C007008FB007B0883120313A5000A30F00055
:100F2C000030F1002108F900FA017908F2007A0882
:100F3C00F3000A128A115E260A128A117008FB004D
:100F4C007B0883120313A600A41FB12F2008883E30
:100F5C00F9007908A000E830F0000330F100200817
:100F6C00F900FA017908F2007A08F3000A128A11E2
:100F7C00A9260A128A117008FB007B08831203133E
:100F8C00A7000000831203132508303E0A128A11B1
:100F9C0068250A128A11831203132608303E0A129E
:100FAC008A1168250A128A112E300A128A116825B4
:100FBC000A128A11831203132708303E0A128A116F
:100FCC0068250A128A118312031328082102031CB4
:100FDC0008000A128A11542508000A128A112625C3
:100FEC00A800A001A101A201A301FC0183010A1226
:040FFC008A11272D02
:02400E00323F3F
:00000001FF
