:060000000A128A11BE2F56
:10000C0002300A128A11D8200800F70077080A1269
:10001C008A119920080064008001840A04060319DF
:10002C00003404061228F700A8300A128A11D820CE
:10003C000A128A1177080A128A1199200800F00115
:10004C00F10100307102143003197002031808001A
:10005C000130F0070318F10A0030F1072728F001EE
:10006C00F101C330710250300319700203180800FB
:10007C000130F0070318F10A0030F10737287E0829
:10008C008A007F08820045200A128A118000840AA7
:10009C0004087D0603190034FF0A0319FE0A4928D7
:1000AC005A346F346E346534203430340034633455
:1000BC006F346C343A343034003472346F347734F7
:1000CC003A343034003401340034063083160313D0
:1000DC009F00850183120313850183160313880186
:1000EC008312031388010A128A15F1270A128A1146
:1000FC000A128A15F62708000630831603139F0090
:10010C0085018312031385010F30831603138700B7
:10011C00F0308312031387008316031388018312B4
:10012C00031388010800F600F401F5017408760742
:10013C00F300730884008313000803190800740883
:10014C007607F30073088400831300080A128A11DF
:10015C00FA200A128A110130F4070318F50A00304C
:10016C00F5079C280A128A116B200A128A110A12AE
:10017C008A11FA250A128A110A128A118A240A1281
:10018C008A11831203133C033D04031DD5280A1264
:10019C008A1180260A128A110A128A1115270A124C
:1001AC008A110028F20083120313851005110A121C
:1001BC008A1125200A128A118312031385150A123B
:1001CC008A1125200A128A117208831203138800DF
:1001DC000A128A1125200A128A118312031385111F
:1001EC000A128A1125200800F200831203138501DC
:1001FC008801851405110A128A1125200A128A1108
:10020C008312031385150A128A1125200A128A11EA
:10021C0072088312031388000A128A1125200A120D
:10022C008A118312031385110A128A1125200800E2
:10023C000A128A15FB270A128A110A128A11062041
:10024C000A128A11573084002130F8000408F90092
:10025C000D30FA007808840083170008FB00F80AB8
:10026C007908840083137B088000F90AFA0B302983
:10027C0057300A128A110B2008000A128A15FB2724
:10028C000A128A110A128A1106200A128A11573090
:10029C008400A030F7000408F8000A30F900770851
:1002AC00840083130008FA00F70A780884007A089F
:1002BC008000F80AF90B552957300A128A11992037
:1002CC000A128A110A128A1135200A128A110A128C
:1002DC008A11352008000A128A15FB270A128A1186
:1002EC000A128A1106200A128A1157308400AA3089
:1002FC00F7000408F8000A30F9007708840083132B
:10030C000008FA00F70A780884007A088000F80AD6
:10031C00F90B832957300A128A1199200A128A1173
:10032C000A128A1135200A128A110A128A113520F2
:10033C0008000A128A15FB270A128A110A128A115E
:10034C0006200A128A1157308400E530F7000408A1
:10035C00F8000930F9007708840083130008FA00CC
:10036C00F70A780884007A088000F80AF90BB1299A
:10037C0057300A128A1199200A128A110A128A110C
:10038C0035200A128A110A128A11352008000A1225
:10039C008A15FB270A128A110A128A1106200A12E0
:1003AC008A1157308400D230F7000408F8000A3064
:1003BC00F9007708840083130008FA00F70A78081C
:1003CC0084007A088000F80AF90BDF2957300A12EA
:1003DC008A1199200A128A110A128A1135200A12DE
:1003EC008A110A128A11352008000A128A15FB2775
:1003FC000A128A110A128A1106200A128A1157301F
:10040C008400C830F7000408F8000A30F9007708B7
:10041C00840083130008FA00F70A780884007A082D
:10042C008000F80AF90B0D2A57300A128A1199200C
:10043C000A128A110A128A1135200A128A110A121A
:10044C008A11352008000A128A15FB270A128A1114
:10045C000A128A1106200A128A1157308400BE3003
:10046C00F7000408F8000A30F900770884008313B9
:10047C000008FA00F70A780884007A088000F80A65
:10048C00F90B3B2A57300A128A1199200A128A1149
:10049C000A128A1135200A128A110A128A11352081
:1004AC0008000A128A15FB270A128A110A128A11ED
:1004BC0006200A128A1157308400B430F700040861
:1004CC00F8000A30F9007708840083130008FA005A
:1004DC00F70A780884007A088000F80AF90B692A70
:1004EC0057300A128A1199200A128A110A128A119B
:1004FC0035200A128A110A128A11352008000A12B4
:10050C008A15FB270A128A110A128A1106200A126E
:10051C008A11573084009C30F7000408F8000C3026
:10052C00F9007708840083170008FA00F70A7808A6
:10053C00840083137A088000F80AF90B972A573045
:10054C000A128A1199200A128A110A128A1135206C
:10055C000A128A110A128A11352008000A128A1509
:10056C00FB270A128A110A128A1106200A128A1112
:10057C0057308400DD30F7000408F8000A30F90029
:10058C007708840083170008FA00F70A78088400BB
:10059C0083137A088000F80AF90BC62A57300A121E
:1005AC008A1199200A128A110A128A1135200A120C
:1005BC008A110A128A11352008000A128A15FB27A3
:1005CC000A128A110A128A1106200A128A1157304D
:1005DC008400BE30F7000408F8000B30F9007708EF
:1005EC00840083170008FA00F70A78088400831344
:1005FC007A088000F80AF90BF52A57300A128A118A
:10060C0099200A128A110A128A1135200A128A11AB
:10061C000A128A11352008000A128A15FB270A12C1
:10062C008A110A128A1106200A128A115730840084
:10063C00D330F7000408F8000A30F900770884007A
:10064C0083170008FA00F70A7808840083137A08E5
:10065C008000F80AF90B242B57300A128A119920C2
:10066C000A128A110A128A1135200A128A110A12E8
:10067C008A11352008000A128A15FB270A128A11E2
:10068C000A128A1106200A128A1157308400B330DC
:10069C00F7000408F8000B30F90077088400831782
:1006AC000008FA00F70A7808840083137A0880009F
:1006BC00F80AF90B532B57300A128A1199200A1297
:1006CC008A110A128A1135200A128A110A128A1109
:1006DC00352008000A128A15FB270A128A110A1201
:1006EC008A1106200A128A1157308400C930F7008B
:1006FC000408F8000A30F900770884008317000812
:10070C00FA00F70A7808840083137A088000F80A44
:10071C00F90B822B57300A128A1199200A128A116E
:10072C000A128A1135200A128A110A128A113520EE
:10073C0008000A128A15FB270A128A110A128A115A
:10074C0006200A128A1157308400A830F7000408DA
:10075C00F8000B30F9007708840083170008FA00C2
:10076C00F70A7808840083137A088000F80AF90BDA
:10077C00B12B57300A128A1199200A128A110A12C7
:10078C008A1135200A128A110A128A1135200800A2
:10079C000A128A15FB270A128A110A128A110620DC
:1007AC000A128A11573084006230F7000408F800EE
:1007BC000D30F9007708840083170008FA00F70A57
:1007CC007808840083137A088000F80AF90BE02B70
:1007DC0057300A128A1199200A128A110A128A11A8
:1007EC0035200A128A110A128A11352008000A12C1
:1007FC008A15FB270A128A110A128A1106200A127C
:10080C008A11573084005530F7000408F8000D3079
:10081C00F9007708840083170008FA00F70A7808B3
:10082C00840083137A088000F80AF90B0F2C5730D8
:10083C000A128A1199200A128A110A128A11352079
:10084C000A128A110A128A11352008000A128A1516
:10085C00FB270A128A110A128A1106200A128A111F
:10086C00573084004830F7000408F8000D30F900C8
:10087C007708840083170008FA00F70A78088400C8
:10088C0083137A088000F80AF90B3E2C57300A12B1
:10089C008A1199200A128A110A128A1135200A1219
:1008AC008A110A128A11352008000A128A15FB27B0
:1008BC000A128A110A128A1106200A128A1157305A
:1008CC0084003B30F7000408F8000D30F90077087D
:1008DC00840083170008FA00F70A78088400831351
:1008EC007A088000F80AF90B6D2C57300A128A111D
:1008FC0099200A128A110A128A1135200A128A11B9
:10090C000A128A11352008000430831203133E06A4
:10091C003F04031DA92C043040064104031DA92CDF
:10092C000130BC000030BD000A128A119F210A124E
:10093C008A110A128A1135200A128A110A128A1196
:10094C00BB240A128A110430831203133E063F049F
:10095C00031D0800033040064104031D0800BC01C0
:10096C00BD010A128A11712108000A128A1106208F
:10097C000A128A1163308400DC30F8000408F90094
:10098C000930FA007808840083130008FB00F80A89
:10099C00790884007B088000F90AFA0BC82C5730C0
:1009AC0084009030F8000408F9000C30FA00780844
:1009BC00840083170008FB00F80A7908840083136D
:1009CC007B088000F90AFA0BDD2C63300A128A11BD
:1009DC000B200A128A1157300A128A1119200800AA
:1009EC005A346F346E3465342034303420344F3400
:1009FC006E34003441346C34613472346D342034D0
:100A0C004F346634663400345A346F346E34653483
:100A1C002034333420344F344B3400345A346F3454
:100A2C006E3465342034323420344F344B3400343B
:100A3C005A346F346E3465342034313420344F34AE
:100A4C004B3400345A346F346E34653420343034C3
:100A5C0020344F344B340034533465346C346534A7
:100A6C006334743420346134003441346C34613474
:100A7C0072346D3420344F346E3400344634753453
:100A8C006E346334743469346F346E342E342E34D3
:100A9C002E34003420345A346F346E3465342034A0
:100AAC00303420344F346634663400345A346F3466
:100ABC006E3465342034333420344F346634663429
:100ACC0000345A346F346E3465342034323420346C
:100ADC004F346634663400345A346F346E346534B3
:100AEC002034313420344F346634663400345A3474
:100AFC006F346E3465342034333420344F346E34D8
:100B0C0000345A346F346E3465342034323420342B
:100B1C004F346E3400345A346F346E3465342034B0
:100B2C00313420344F346E340034433468346534FB
:100B3C0063346B3469346E34673420344234753426
:100B4C00743474346F346E34733400344334683416
:100B5C00653463346B342034613420345A346F344C
:100B6C006E3465340034543465346D34703465340B
:100B7C007234613474347534723465343A340034FC
:100B8C005A346F346E346534203433342034413469
:100B9C006C3465347234743400345A346F346E34BB
:100BAC00653420343234203441346C34653472343E
:100BBC00743400345A346F346E3465342034313428
:100BCC00203441346C3465347234743400345A3407
:100BDC006F346E34653420343034203441346C340A
:100BEC006534723474340034F0010A128A11822094
:100BFC000A128A1183120313071207180D2E0430E0
:100C0C00C0000030C1000130BE000030BF008718AA
:100C1C00172E0330C0000030C1000130BE00003080
:100C2C00BF000719212E0230C0000030C100013076
:100C3C00BE000030BF0087192B2E0130C0000030E1
:100C4C00C1000130BE000030BF0007168712071824
:100C5C00312E04303C2E8718352E03303C2E0719CC
:100C6C00392E02303C2E8719432E0130C000003043
:100C7C00C1000230BE000030BF00871607130718F2
:100C8C00492E0430542E87184D2E0330542E07193C
:100C9C00512E0230542E87195B2E0130C0000030CB
:100CAC00C1000330BE000030BF00071787130718C0
:100CBC00612E04306C2E8718652E03306C2E0719AC
:100CCC00692E02306C2E8719732E0130C000003053
:100CDC00C1000430BE000030BF008717400841043B
:100CEC00031D7C2E3E083F0403197E2EF001F00AF2
:100CFC0070080800831203133E033F04031D080011
:100D0C0040034104031D08000A128A111E210A1215
:100D1C008A11013083120313B8000030B900380374
:100D2C003904031D08003E033F04031DB62E023098
:100D3C0040064104031DB62E2E082F04031DAB2EB6
:100D4C000A128A11CD210A128A11831203132E035F
:100D5C002F04031DB62E0A128A11CE230A128A11F1
:100D6C000230831203133E063F04031DD62E0230BD
:100D7C0040064104031DD62E2C082D04031DCB2E3A
:100D8C000A128A11FB210A128A11831203132C03F3
:100D9C002D04031DD62E0A128A11FD230A128A1164
:100DAC000330831203133E063F04031DF62E02305C
:100DBC0040064104031DF62E2A082B04031DEB2EBE
:100DCC000A128A1129220A128A11831203132A0386
:100DDC002B04031DF62E0A128A112C240A128A11D6
:100DEC000430831203133E063F04031D0800023037
:100DFC0040064104031D080028082904031D0B2F7D
:100E0C000A128A1157220A128A1183120313280319
:100E1C002904031D08000A128A115B240800023001
:100E2C00831203133E063F04031D080040034104D4
:100E3C00031D08000130BA000030BB003A033B042C
:100E4C00031D08003E033F04031D4D2F02304006D6
:100E5C004104031D4D2F36083704031D402F0A1281
:100E6C008A1143210A128A11013083120313B6002E
:100E7C000030B70036033704031D4D2F0A128A11B8
:100E8C0085220A128A1183120313B601B7010230AC
:100E9C003E063F04031D732F023040064104031D20
:100EAC00732F34083504031D662F0A128A11B422DD
:100EBC000A128A11013083120313B4000030B500FA
:100ECC0034033504031D732F0A128A11E3220A120C
:100EDC008A1183120313B401B50103303E063F049B
:100EEC00031D992F023040064104031D992F32082F
:100EFC003304031D8C2F0A128A1112230A128A1131
:100F0C00013083120313B2000030B30032033304F8
:100F1C00031D992F0A128A1141230A128A11831276
:100F2C000313B201B30104303E063F04031D080055
:100F3C00023040064104031D080030083104031D33
:100F4C00B22F0A128A1170230A128A1101308312ED
:100F5C000313B0000030B10030033104031D08004E
:100F6C000A128A119F2383120313B001B1010800E6
:100F7C008317E730FD000530FE004430FF00903051
:100F8C0084000A128A1149200A128A116F30FD005E
:100F9C000530FE009B30FF00103084000A128A11CD
:100FAC0049200A128A118313EE30FD000430FE0032
:100FBC00F630FF00A03084000A128A1149200A1270
:100FCC008A115730FD000030FE005630FF004230D1
:100FDC0084000A128A1149200A128A1120308400D6
:100FEC0042300A128A111120FC01FD0183010A1200
:040FFC008A11B82876
:101FE2000F300A128A11D820080038300A128A11DA
:0E1FF200D820080001300A128A11D8200800F9
:02400E00323F3F
:00000001FF
