:060000000A128A11AE2F66
:10000800F400F201F3017308803AFF0080307F02A8
:10001800031D1028083072020318312883120313B5
:1000280006120610741806167408F0000310700CF7
:10003800F1007108F40006140130F2070318F30AFE
:100048000030F3077308803AFF0080307F02031DF9
:100058002F2808307202031C12288312031306107B
:1000680008000A30F0000030F100831203133D0845
:10007800F900FA017908F2007A08F3000A128A15E1
:1000880000250A128A117008FB007B08FC000A3060
:10009800F0000030F100831203133D08F900FA0163
:1000A8007908F2007A08F3000A128A1511240A1254
:1000B8008A117008FB007B08FD00831203134103BB
:1000C800031D9A2838033904031D9A2803303A0679
:1000D8003B04031D9A280130F9007908BD070A1668
:1000E8008A1193240A128A110A168A11BE230A1247
:1000F8008A110A168A11C3230A128A117C08303E13
:100108000A168A113D250A128A117D08303E0A1600
:100118008A113D250A128A110A168A1127240A1201
:100128008A110A168A1127240A128A1102308312A8
:10013800031338063904031D080003303A063B044C
:10014800031D08000130BD020A168A1193240A1201
:100158008A110A168A11BE230A128A110A168A11EE
:10016800C3230A128A117C08303E0A168A113D25DB
:100178000A128A117D08303E0A168A113D250A1294
:100188008A110A168A1127240A128A110A168A1154
:10019800272408000A168A1193240A128A110A12BF
:1001A8008A15E1260A128A110A128A15B4210A123E
:1001B8008A110A168A11A9250A128A1183120313B1
:1001C8004A03031DEC280A128A156B260A128A11A3
:1001D8000A168A11CD250A128A11831203134B03BA
:1001E800031D00290A128A15B2250A128A110A1259
:1001F8008A15A9240A128A110A168A11F2250A12E6
:100208008A11831203134103031D0F290A128A114D
:1002180035200A128A110A168A1185250A128A11AE
:10022800831203134003031D1E290A128A11D125C4
:100238000A128A110A168A1161250A128A11831272
:1002480003133F03031D2D290A128A11F4230A12EE
:100258008A110A168A11FB240A128A1183120313BF
:100268003E03031D3C290A128A1567270A128A11C0
:100278000A128A1500200A128A110A128A152823DE
:100288000A128A110A128A15F0220A128A110A160B
:100298008A11C1240A128A110A168A11BA230A126B
:1002A8008A11831203133D084E02031CD328490305
:1002B800031DD328C501C50A3C08E700E801670803
:1002C800F0006808F1000A128A15E2210A128A1160
:1002D8000A168A117F240A128A11D328043083123D
:1002E800031338063904031D89293A033B04031D07
:1002F80089293408F9007908B1003508F900790826
:10030800B2003708F9007908B3003108F900790814
:10031800D10065305102031CA7296430F000003079
:10032800F1005108F900FA017908F2007A08F3009F
:100338000A128A1500250A128A117008FB007B0828
:1003480083120313D1003408F9007908D80058083B
:10035800F90004300310F90CFF3E031DAE2979089B
:100368000739FA007A08D20058080F39F9007908D5
:10037800D3003508F9007908D9005908F900043084
:100388000310F90CFF3E031DC42979080739FA0048
:100398007A08D40059080F39F9007908D5003708C8
:1003A800F9007908DA005A08F90004300310F90C4A
:1003B800FF3E031DDA2979080739FA007A08D600C2
:1003C8005A080F39F9007908D7000000831203137F
:1003D8005208303E0A168A113D250A128A118312E4
:1003E80003135308303E0A168A113D250A128A1152
:1003F8003A300A168A113D250A128A11831203130C
:100408005408303E0A168A113D250A128A118312B1
:1004180003135508303E0A168A113D250A128A111F
:100428003A300A168A113D250A128A1183120313DB
:100438005608303E0A168A113D250A128A1183127F
:1004480003135708303E0A168A113D250A128A11ED
:100458000A168A1137240A128A110A168A113724B1
:100468000A128A1101300A168A111B250800043065
:100478008312031338063904031D522A3A033B0436
:10048800031D522A3408F9007908B1003508F9002B
:100498007908B2003708F9007908B3003108F90083
:1004A8007908D10065305102031C702A6430F000CD
:1004B8000030F1005108F900FA017908F2007A08D1
:1004C800F3000A128A1500250A128A117008FB0027
:1004D8007B0883120313D1003108F9007908D8008A
:1004E8005808F90004300310F90CFF3E031D772A61
:1004F80079080739FA007A08D20058080F39F90044
:100508007908D3003208F9007908D9005908F900A8
:1005180004300310F90CFF3E031D8D2A79080739B2
:10052800FA007A08D40059080F39F9007908D5007B
:100538003308F9007908DA005A08F9000430031082
:10054800F90CFF3E031DA32A79080739FA007A0837
:10055800D6005A080F39F9007908D700000083122D
:1005680003135208303E0A168A113D250A128A11D1
:10057800831203135308303E0A168A113D250A12C6
:100588008A113A300A168A113D250A128A118312F5
:1005980003135408303E0A168A113D250A128A119F
:1005A800831203135508303E0A168A113D250A1294
:1005B8008A113A300A168A113D250A128A118312C5
:1005C80003135608303E0A168A113D250A128A116D
:1005D800831203135708303E0A168A113D250A1262
:1005E8008A110A168A1137240A128A110A168A11E0
:1005F80037240A128A1101300A168A111B250800AD
:100608000A128A1515220A128A11CC300A128A1582
:1006180081220A128A1144300A128A1581220A128A
:100628008A114630F9007908F00002300A168A115A
:10063800F9230A128A110A128A1515220A128A1136
:10064800CC300A128A1581220A128A11BE300A1287
:100658008A1581220A128A110A128A1560230A123F
:100668008A11F900790883120313D0000A128A1537
:1006780060230A128A11F900790883120313CF0044
:100688004F08F90004300310F90DFF3E031D472BF6
:100698005008FA0004300310FA0CFF3E031D4F2BDC
:1006A8007A087904FB007B08CE005008F900033073
:1006B8000310F90DFF3E031D5C2B0310790DFA00A2
:1006C8007A08D20065304E02031C802B6430F0009B
:1006D8000030F1004E08F900FA017908F2007A08B2
:1006E800F3000A128A1500250A128A117008FB0005
:1006F8007B0883120313CE000A30F0000030F100AB
:100708004E08F900FA017908F2007A08F3000A1293
:100718008A1500250A128A117008FB007B088312CB
:100728000313D3000A30F0000030F1004E08F9003E
:10073800FA017908F2007A08F3000A128A151124DE
:100748000A128A117008FB007B0883120313D40075
:10075800D21FB32B4D08883EF9007908CD00E83048
:10076800F0000330F1004D08F900FA017908F200B1
:100778007A08F3000A128A1500250A128A117008ED
:10078800FB007B0883120313D500000083120313B8
:100798005308303E0A168A113D250A128A1183121F
:1007A80003135408303E0A168A113D250A128A118D
:1007B8002E300A168A113D250A128A118312031354
:1007C8005508303E0A168A113D250A128A110A1662
:1007D8008A116B240A128A110A168A116B240800DE
:1007E8000A30F0000030F100831203133408F900D6
:1007F800FA017908F2007A08F3000A128A1500252E
:100808000A128A117008FB007B0883120313D200B6
:100818000A30F0000030F1003408F900FA017908D4
:10082800F2007A08F3000A128A1511240A128A11B2
:100838007008FB007B0883120313D3000A30F00012
:100848000030F1003508F900FA017908F2007A0859
:10085800F3000A128A1500250A128A117008FB0093
:100868007B0883120313D4000A30F0000030F10033
:100878003508F900FA017908F2007A08F3000A123B
:100888008A1511240A128A117008FB007B0883124A
:100898000313D5000A30F0000030F1003708F900E2
:1008A800FA017908F2007A08F3000A128A1500257D
:1008B8000A128A117008FB007B0883120313D60002
:1008C8000A30F0000030F1003708F900FA01790821
:1008D800F2007A08F3000A128A1511240A128A1102
:1008E8007008FB007B0883120313D7003F03031D26
:1008F800080038033904031DB52C03303A063B04BD
:10090800031DB52C0130F9007908B4070A168A11BD
:1009180093240A128A110A168A11BE230A128A110E
:100928000A168A11C3230A128A1183120313520862
:10093800303E0A168A113D250A128A1183120313C2
:100948005308303E0A168A113D250A128A110A16E2
:100958008A1127240A128A110A168A1127240A12D0
:100968008A1102308312031338063904031DEE2C52
:1009780003303A063B04031DEE2C0130B4020A167C
:100988008A1193240A128A110A168A11BE230A129E
:100998008A110A168A11C3230A128A1183120313B1
:1009A8005208303E0A168A113D250A128A1183120E
:1009B80003135308303E0A168A113D250A128A117C
:1009C8000A168A1127240A128A110A168A1127245C
:1009D8000A128A118312031338033904031D282DC0
:1009E80002303A063B04031D282D0130F90079082E
:1009F800B5070A168A1193240A128A110A168A114F
:100A0800BE230A128A110A168A11C3230A128A11EE
:100A1800831203135408303E0A168A113D250A1220
:100A28008A11831203135508303E0A168A113D2590
:100A38000A128A110A168A1127240A128A110A161A
:100A48008A1127240A128A110230831203133806E6
:100A58003904031D612D02303A063B04031D612D44
:100A68000130B5020A168A1193240A128A110A164D
:100A78008A11BE230A128A110A168A11C3230A127E
:100A88008A11831203135408303E0A168A113D2531
:100A98000A128A11831203135508303E0A168A1166
:100AA8003D250A128A110A168A1127240A128A1168
:100AB8000A168A1127240A128A118312031338038B
:100AC8003904031D9A2D3A033B04031D9A2D013066
:100AD800F9007908B7070A168A1193240A128A11AD
:100AE8000A168A11BE230A128A110A168A11C3230A
:100AF8000A128A11831203135608303E0A168A1105
:100B08003D250A128A11831203135708303E0A162C
:100B18008A113D250A128A110A168A1127240A12F7
:100B28008A110A168A1127240A128A11023083129E
:100B3800031338063904031D08003A033B04031D58
:100B480008000130B7020A168A1193240A128A1182
:100B58000A168A11BE230A128A110A168A11C32399
:100B68000A128A11831203135608303E0A168A1194
:100B78003D250A128A11831203135708303E0A16BC
:100B88008A113D250A128A110A168A1127240A1287
:100B98008A110A168A11272408000A30F00000304A
:100BA800F100831203133108F900FA017908F20001
:100BB8007A08F3000A128A1500250A128A117008A9
:100BC800FB007B0883120313D2000A30F0000030C8
:100BD800F1003108F900FA017908F2007A08F30007
:100BE8000A128A1511240A128A117008FB007B0860
:100BF80083120313D3000A30F0000030F1003208EA
:100C0800F900FA017908F2007A08F3000A128A1545
:100C180000250A128A117008FB007B08831203134F
:100C2800D4000A30F0000030F1003208F900FA016F
:100C38007908F2007A08F3000A128A1511240A12B8
:100C48008A117008FB007B0883120313D5000A3051
:100C5800F0000030F1003308F900FA017908F200D9
:100C68007A08F3000A128A1500250A128A117008F8
:100C7800FB007B0883120313D6000A30F000003013
:100C8800F1003308F900FA017908F2007A08F30054
:100C98000A128A1511240A128A117008FB007B08AF
:100CA80083120313D7004003031D080038033904D7
:100CB800031D922E03303A063B04031D922E013089
:100CC800F9007908B1070A168A1193240A128A11C1
:100CD8000A168A11BE230A128A110A168A11C32318
:100CE8000A128A11831203135208303E0A168A1117
:100CF8003D250A128A11831203135308303E0A163F
:100D08008A113D250A128A110A168A1127240A1205
:100D18008A110A168A1127240A128A1102308312AC
:100D2800031338063904031DCB2E03303A063B045F
:100D3800031DCB2E0130B1020A168A1193240A1220
:100D48008A110A168A11BE230A128A110A168A11F2
:100D5800C3230A128A11831203135208303E0A165B
:100D68008A113D250A128A11831203135308303E53
:100D78000A168A113D250A128A110A168A11272491
:100D88000A128A110A168A1127240A128A11831252
:100D9800031338033904031D052F02303A063B04B8
:100DA800031D052F0130F9007908B2070A168A11C8
:100DB80093240A128A110A168A11BE230A128A116A
:100DC8000A168A11C3230A128A11831203135408BC
:100DD800303E0A168A113D250A128A11831203131E
:100DE8005508303E0A168A113D250A128A110A163C
:100DF8008A1127240A128A110A168A1127240A122C
:100E08008A1102308312031338063904031D3E2F5A
:100E180002303A063B04031D3E2F0130B2020A1687
:100E28008A1193240A128A110A168A11BE230A12F9
:100E38008A110A168A11C3230A128A11831203130C
:100E48005408303E0A168A113D250A128A11831267
:100E580003135508303E0A168A113D250A128A11D5
:100E68000A168A1127240A128A110A168A112724B7
:100E78000A128A118312031338033904031D772FCA
:100E88003A033B04031D772F0130F9007908B307B3
:100E98000A168A1193240A128A110A168A11BE2385
:100EA8000A128A110A168A11C3230A128A11831296
:100EB80003135608303E0A168A113D250A128A1174
:100EC800831203135708303E0A168A113D250A1269
:100ED8008A110A168A1127240A128A110A168A11F7
:100EE80027240A128A1102308312031338063904A0
:100EF800031D08003A033B04031D08000130B30238
:100F08000A168A1193240A128A110A168A11BE2314
:100F18000A128A110A168A11C3230A128A11831225
:100F280003135608303E0A168A113D250A128A1103
:100F3800831203135708303E0A168A113D250A12F8
:100F48008A110A168A1127240A128A110A168A1186
:100F5800272408008317EE30FD000E30FE000D3008
:100F6800FF00903084000A168A114B240A128A1155
:100F78006930FD000D30FE005930FF00103084004C
:100F88000A168A114B240A128A118313ED30FD00C8
:100F98000C30FE005C30FF00A03084000A168A1175
:100FA8004B240A128A112830FD001330FE00E53068
:100FB800FF00203084000A168A114B240A128A1175
:100FC8006E30FD001330FE00D230FF00693084001F
:100FD8000A168A114B240A128A11A801A901AA012A
:100FE800AB01EE013130840052300A168A11DD233C
:100FF80083010A128A11CE2802308312031338069D
:101008003904031D080004303A063B04031D080098
:101018000A128A11042308000A168A11BE230A122A
:101028008A150A168A11C3230A128A1552308400B7
:10103800E430F7000408F8000A30F9007708840063
:1010480083170008FA00F70A7808840083137A08DF
:101058008000F80AF90B222852300A168A11DC247B
:101068000A128A150A168A11172408000A168A1104
:10107800BE230A128A150A168A11C3230A128A1570
:10108800523084005130F8000408F9000C30FA009E
:101098007808840083170008FB00F80A79088400A0
:1010A80083137B088000F90AFA0B4C2852300A1681
:1010B8008A11D7230A128A150A168A1117240800DA
:1010C8000A168A11BE230A128A150A168A11C32320
:1010D8000A128A15523084004430F7000408F800D8
:1010E8000D30F9007708840083170008FA00F70A22
:1010F8007808840083137A088000F80AF90B7628A8
:1011080052300A168A11DC240A128A150A168A1124
:10111800172408000A168A11BE230A128A150A160D
:101128008A11C3230A128A15523084003730F70017
:101138000408F8000D30F9007708840083170008C8
:10114800FA00F70A7808840083137A088000F80AFE
:10115800F90BA02852300A168A11DC240A128A15C3
:101168000A168A11172408000A168A11BE230A12C1
:101178008A150A168A11C3230A128A155230840066
:101188002A30F7000408F8000D30F90077088400C9
:1011980083170008FA00F70A7808840083137A088E
:1011A8008000F80AF90BCA2852300A168A11DC2482
:1011B8000A128A150A168A11172408000A168A11B3
:1011C800BE230A128A150A168A11C3230A128A151F
:1011D800523084001D30F7000408F8000D30F90083
:1011E8007708840083170008FA00F70A7808840053
:1011F80083137A088000F80AF90BF42852300A168B
:101208008A11DC240A128A150A168A111724080082
:101218000A168A11BE230A128A150A168A11C323CE
:101228000A128A1552308400B130F7000408F80019
:101238000B30F9007708840083170008FA00F70AD2
:101248007808840083137A088000F80AF90B1E29AD
:1012580052300A168A11DC240A128A150A168A11D3
:10126800172408000A168A11BE230A128A150A16BC
:101278008A11C3230A128A1552308400A630F70057
:101288000408F8000B30F900770884008317000879
:10129800FA00F70A7808840083137A088000F80AAD
:1012A800F90B482952300A168A11DC240A128A15C9
:1012B8000A168A11172408000A168A11BE230A1270
:1012C8008A150A168A11C3230A128A155230840015
:1012D8009B30F7000408F8000B30F9007708840009
:1012E80083170008FA00F70A7808840083137A083D
:1012F8008000F80AF90B722952300A168A11DC2488
:101308000A128A150A168A11172408000A168A1161
:10131800BE230A128A150A168A11C3230A128A15CD
:10132800523084009030F7000408F8000B30F900C0
:101338007708840083170008FA00F70A7808840001
:1013480083137A088000F80AF90B9C2952300A1690
:101358008A11DC240A128A150A168A111724080031
:1013680004308312031338063904031DD1290430CD
:101378003A063B04031DD129CC01CC0A0A168A116E
:1013880062260A128A150A168A1127240A128A1551
:101398000A128A1599230A128A1503308312031335
:1013A80038063904031D080004303A063B04031DBF
:1013B8000800CC010A128A1510200800F301F40174
:1013C8007408803AF2007108803A7202031DEE290F
:1013D8007008730203180800F501F6017608803AD0
:1013E800FF00E1307F02031DFB29A83075020318B6
:1013F8000E2A0130F5070318F60A0030F6077608BA
:10140800803AFF00E1307F02031D0C2AA8307502E4
:10141800031CFD290130F3070318F40A0030F40710
:10142800E429F5017508031D080083160313051048
:101438008312031305104630F4007408F0000230DC
:101448000A168A11F9230A128A1501308316031322
:1014580085000830F4007408F00002300A168A117A
:10146800F9230A128A1583120313051C3D2AF50174
:101478003F2AF501F50A3C30F4007408F000023008
:101488000A168A11F9230A128A15162A83120313D7
:101498008616BF300A128A1104200A128A15F6012C
:1014A800F7017708803AFF0080307F02031D5E2A2B
:1014B8000730760203187D2A0A128A15D4230A12E5
:1014C8008A15F5007608313E84007508831380007C
:1014D8000130F6070318F70A0030F7077708803A53
:1014E800FF0080307F02031D7B2A07307602031C31
:1014F800602A8312031386120800F700F8010830E7
:1015080078020318080077080139F4007408F60017
:10151800831603130510831203130510000000003F
:101528000000000000007603031D9D2A83120313A8
:1015380005140730F4007408F00002300A168A1106
:10154800F9230A128A1583160313051400000000F4
:101558007708F4000310740CF5007508F7000130E3
:10156800F4007408F807832A831203138616BE3022
:101578000A128A1104200A128A15F501F601760862
:10158800803AFF0080307F02031DCC2A08307502A4
:101598000318EC2A7508013E84000A168A110020F7
:1015A8000A128A150A128A1104200A128A150130B1
:1015B800F5070318F60A0030F6077608803AFF00A8
:1015C80080307F02031DEA2A08307502031CCE2AE8
:1015D800831203138612080003308312031338069C
:1015E8003904031D080002303A063B04031D0800B5
:1015F8004B08031D08004108031D08003E08031D91
:1016080008004008031D08003F08031D08004A0899
:10161800031D08000A168A1158240A128A150A1688
:101628008A1117260A128A150A128A15B8220A126E
:101638008A150A128A154A220A128A150A128A116A
:1016480072210A128A151D2B0430831203133806DF
:101658003904031D080002303A063B04031D080044
:101668004B08031D08004108031D08003E08031D20
:1016780008004008031D08003F08031D08004A0829
:10168800031D08000A168A1158240A128A150A1618
:101698008A1117260A128A150A128A15B8220A12FE
:1016A8008A150A128A154A220A128A150A128A11FA
:1016B8003B220A128A15552BF501F60108307602ED
:1016C8000318972B0310F50C8316031305108312C8
:1016D80003130510000000000000000000000000D7
:1016E800831603130514000000000000000000002A
:1016F800831203136E1005186E14831203136E18E9
:10170800F5170730F4007408F00002300A168A1141
:10171800F9230A128A150130F4007408F607083014
:101728007602031C672B750808000A168A11C32362
:101738000A128A155E308400C830F8000408F900DF
:101748000930FA007808840083130008FB00F80ABF
:10175800790884007B088000F90AFA0BA62B52301E
:1017680084005D30F8000408F9000C30FA007808AD
:10177800840083170008FB00F80A790884008313A3
:101788007B088000F90AFA0BBB2B5E300A168A1117
:10179800D7230A128A1552300A168A11ED23080037
:1017A800831603130616F201F3017308803AFF004B
:1017B80080307F02031DE22B083072020318092CC7
:1017C8008312031306103008F0000310700CF100A8
:1017D8007108B000061EF42B83120313B017F72B01
:1017E80083120313B01306140130F2070318F30A27
:1017F8000030F3077308803AFF0080307F02031D32
:10180800072C08307202031CE42B831603130612FC
:1018180083120313061030080800F601F31F1B2C6F
:10182800F209F309F20A0319F30AF601F60AF11F9D
:10183800222CF009F109F00A0319F10A7008710461
:1018480003194F2CF501F50AF11B362C0130031052
:10185800F00DF10DFF3E031D2B2C0130F400740830
:10186800F507282C71087302031D3C2C70087202BE
:10187800031C442C7008F2027108031CF303F302E2
:1018880001300310F10CF00CFF3E031D452C013014
:10189800F502031D362C76080319572CF209F309B3
:1018A800F20A0319F30A7308F1007208F00008003D
:1018B8005A346F346E3465342034333420344F3422
:1018C8004B3400345A346F346E3465342034323437
:1018D80020344F344B3400345A346F346E3465340A
:1018E8002034313420344F344B3400345A346F347C
:1018F8006E3465342034303420344F344B34003463
:10190800533465346C34653463347434203461344E
:10191800003441346C34613472346D3420344F34C3
:101928006E3400345A346F346E34653420343034B5
:10193800003443346834653463346B3400346334BE
:101948006F346C343A3430340034831203134B034D
:10195800031D080038033904031DC22C03303A065E
:101968003B04031DC22C4903031DC22C0A128A150D
:101978000C210A128A1583120313C9010230380692
:101988003904031DD72C03303A063B04031DD72C1A
:101998004803031DD72C0A128A1536210A128A1504
:1019A80083120313C801033038063904031DEC2CD5
:1019B80003303A063B04031DEC2C4703031DEC2CB3
:1019C8000A128A1560210A128A1583120313C701A5
:1019D800043038063904031D080003303A063B0476
:1019E800031D08004603031D08000A128A158A21F0
:1019F80083120313C6010800F601F11F0A2DF0092E
:101A0800F109F00A0319F10AF601F60AF31F152D78
:101A1800F209F309F20A0319F30A0130F400740811
:101A2800F606F701F8017008710403194C2DF50149
:101A3800F50AF11B2B2D01300310F00DF10DFF3EBF
:101A4800031D202D0130F4007408F5071D2D013009
:101A58000310F70DF80DFF3E031D2C2D71087302BE
:101A6800031D382D70087202031C412D7008F20204
:101A78007108031CF303F302771401300310F10C0F
:101A8800F00CFF3E031D422D0130F502031D2B2DE6
:101A980076080319542DF709F809F70A0319F80A03
:101AA8007808F1007708F0000800543465346D3484
:101AB8007034653472346134743475347234653416
:101AC8003A3400345A346F346E3465342034333445
:101AD800203441346C3465347234743400345A34EC
:101AE8006F346E34653420343234203441346C34ED
:101AF80065347234743400345A346F346E34653457
:101B080020343134203441346C34653472347434C4
:101B180000345A346F346E34653420343034203411
:101B280041346C346534723474340034433468346A
:101B380061346E34673465342034543465346D341C
:101B480070340034463475346E3463347434693414
:101B58006F346E342E342E342E3400348312031333
:101B68004B03031D080038033904031DCC2D023034
:101B78003A063B04031DCC2D4908031DCC2D0A163B
:101B88008A1158270A128A1583120313C901C90A30
:101B9800023038063904031DE02D02303A063B04B2
:101BA800031DE02D4808031DE02DC801C80A0A16C8
:101BB8008A1182270A128A15033083120313380602
:101BC8003904031DF82D02303A063B04031DF82D95
:101BD8004708031DF82D0A168A11AC270A128A1520
:101BE80083120313C701C70A043038063904031DDA
:101BF800080002303A063B04031D08004608031D8E
:101C080008000A168A11D62783120313C601C60ACA
:101C180008005A346F346E34653420343334203439
:101C28004F346634663400345A346F346E34653455
:101C38002034323420344F346634663400345A3415
:101C48006F346E3465342034313420344F34663484
:101C5800663400345A346F346E346534203430348A
:101C680020344F346634663400345A346F346E345A
:101C780065342034333420344F346E3400345A34CD
:101C88006F346E3465342034323420344F346E343B
:101C980000345A346F346E3465342034313420348F
:101CA8004F346E3400345A346F346E346534203413
:101CB800303420344F346E34003441346C34613461
:101CC80072346D3420344F346634663400348312F1
:101CD800031338033904031D882E02303A063B04E7
:101CE800031D882E4508031D7E2E0A168A11B42668
:101CF8000A128A15831203134503031D882E0A123C
:101D08008A1564200A128A150230831203133806D2
:101D18003904031DA62E02303A063B04031DA62EE5
:101D28004408031D9C2E0A168A11DD260A128A15FC
:101D3800831203134403031DA62E0A128A158E204C
:101D48000A128A1503308312031338063904031D57
:101D5800C42E02303A063B04031DC42E4308031D5B
:101D6800BA2E0A168A1106270A128A158312031335
:101D78004303031DC42E0A128A15B8200A128A15B5
:101D880004308312031338063904031D0800023097
:101D98003A063B04031D08004208031DD82E0A1604
:101DA8008A112F270A128A15831203134203031D6F
:101DB80008000A128A15E2200800F0010A168A11A2
:101DC800AA240A128A158312031307120718F42E7D
:101DD8000430BA000030BB000130B8000030B90050
:101DE8008718FE2E0330BA000030BB000130B8005F
:101DF8000030B9000719082F0230BA000030BB00C4
:101E08000130B8000030B9008719122F0130BA002C
:101E18000030BB000130B8000030B9000716871247
:101E28000718182F0430232F87181C2F0330232F4F
:101E38000719202F0230232F87192A2F0130BA00C3
:101E48000030BB000230B8000030B9008716071315
:101E58000718302F04303B2F8718342F03303B2FBF
:101E68000719382F02303B2F8719422F0130BA004B
:101E78000030BB000330B8000030B90007178713E3
:101E88000718482F0430532F87184C2F0330532F2F
:101E98000719502F0230532F87195A2F0130BA00D3
:101EA8000030BB000430B8000030B90087173A088A
:101EB8003B04031D632F380839040319652FF0010B
:101EC800F00A700808000A30F0000030F1008312B0
:101ED80003133C08F900FA017908F2007A08F300C4
:101EE8000A128A1500250A128A157008FB007B0859
:101EF800FC000A30F0000030F100831203133C08A4
:101F0800F900FA017908F2007A08F3000A128A1532
:101F180011240A128A157008FB007B08FD00831241
:101F280003134103031DCC2F38033904031DCC2FA1
:101F380002303A063B04031DCC2F0130F900790822
:101F4800BC070A168A1193240A128A150A168A11DE
:101F5800BE230A128A150A168A11C3230A128A1581
:101F68007C08303E0A168A113D250A128A157D081A
:101F7800303E0A168A113D250A128A150A168A1158
:101F880027240A128A150A168A1127240A128A1582
:101F980002308312031338063904031D0800023087
:101FA8003A063B04031D08000130BC020A168A11D8
:101FB80093240A128A150A168A11BE230A128A1550
:101FC8000A168A11C3230A128A157C08303E0A169B
:101FD8008A113D250A128A157D08303E0A168A1193
:101FE8003D250A128A150A168A1127240A128A150B
:101FF8000A168A112724080010308A000408840A67
:1020080082070034503459342334083403340634F6
:042018000634003456
:10277400831603138601080001300A168A111B25EB
:10278400080002300A168A111B2508000F300A16A9
:102794008A111B25080038300A168A111B250800E7
:1027A4005A346F346E3465340034F70077080A16EF
:1027B4008A11DC24080064008001840A04060319D9
:1027C40000340406DE2B72346F3477343A343034F8
:1027D400003401341434F700A8300A168A111B257A
:1027E4000A168A1177080A168A11DC240800F200F6
:1027F4007008F1007108F3000130F302031DFE2B91
:102804000130F20203190800FA2BF001F101003043
:102814007102143003197002031808000130F00724
:102824000318F10A0030F107092CF001F1016130BD
:102834007102A83003197002031808000130F00770
:102844000318F10A0030F107192CF001F101C3302B
:102854007102503003197002031808000130F007A8
:102864000318F10A0030F107292CF001F1010130BD
:102874007102F43003197002031808000130F007E4
:102884000318F10A0030F107392C7E088A007F080A
:10289400820047240A168A118000840A04087D06EF
:1028A40003190034FF0A0319FE0A4B2C8312031385
:1028B4000610861286168E300A128A1104200A1611
:1028C4008A1100300A128A1104208312031386121B
:1028D4000800F001F1017108803AFF0081307F02A5
:1028E400031D762CF4307002031808000130F00741
:1028F4000318F10A0030F1076D2C831203138617B5
:102904000A168A116B240A168A110A168A116B2474
:102914000A168A110A168A116B248312031386136A
:1029240008000630831603139F00850183120313E6
:1029340085018316031388018312031388010A1681
:102944008A11C8230A168A110A168A11CD2308008F
:102954000630831603139F00850183120313850138
:102964000F30831603138700F0308312031387009C
:1029740083160313880183120313880108000A16BF
:102984008A11BE230A168A110A168A11C3230A164B
:102994008A118312031338033904031D0800043019
:1029A4003A063B04031D0800CB01CA01C101AA0178
:1029B400A9010800F600F401F50174087607F30094
:1029C4007308840083130008031908007408760749
:1029D400F30073088400831300080A168A113D2546
:1029E4000A168A110130F4070318F50A0030F507B6
:1029F400DF2C03308312031338063904031D080047
:102A04003A033B04031D08004B08031D08004A0851
:102A1400031D08004108031D08003E08031D0800AB
:102A24004008031D08003F08031D0800BE01BE0A3C
:102A34000800F20083120313851005110A168A1187
:102A440007240A168A118312031385150A168A119C
:102A540007240A168A1172088312031388000A16BF
:102A64008A1107240A168A118312031385110A1680
:102A74008A1107240800F2008312031385018801D8
:102A8400851405110A168A1107240A168A1183125D
:102A9400031385150A168A1107240A168A11720867
:102AA4008312031388000A168A1107240A168A114E
:102AB4008312031385110A168A11072408000430AF
:102AC4008312031338063904031D080003303A0641
:102AD4003B04031D08004B08031D08004A08031D9E
:102AE40008002A08031D08002908031D08004108DE
:102AF400031D08004008031D08003E08031D0800CC
:102B0400BF01BF0A080003308312031338063904D7
:102B1400031D080003303A063B04031D08004B085C
:102B2400031D08004A08031D08002A08031D0800A5
:102B34002908031D08004108031D08003E08031D61
:102B440008003F08031D0800C001C00A08008312E2
:102B5400031338033904031D08003A033B04031D1F
:102B640008004B08031D08004108031D0800410824
:102B7400031D08003E08031D08004008031D08004B
:102B84003F08031D08000A168A118B2683120313BB
:102B9400CA01CA0A08000230831203133806390432
:102BA400031D08003A033B04031D08004A08031DE3
:102BB40008004108031D08004108031D08003E08E1
:102BC400031D08004008031D08003F08031D0800FA
:102BD4000A168A113C2683120313CB01CB0A080080
:102BE4008312031338033904031D080002303A0624
:102BF4003B04031D08004B08031D08004A08031D7D
:102C040008004108031D08003E08031D0800400891
:102C1400031D08003F08031D08000A128A153A2004
:102C240083120313C101C10A08008316031385012B
:102C3400FF30831203138500831603138801FF30CA
:102C440083120313880002308316031386000630B0
:102C54009F000F300A168A111B250A168A110130AB
:102C64000A168A111B250A168A1138300A168A1187
:102C74001B2508000A168A11BE230A168A110A1691
:102C84008A11C3230A168A1177308400831203132E
:102C940069088000840A6A088000840A6B0880003E
:102CA400840A6C088000840A6D08800077300A1654
:102CB4008A11DC240A168A110A168A1117240800BC
:102CC4000A168A11BE230A168A110A168A11C32308
:102CD4000A168A1152308400D130F7000408F80033
:102CE4000930F9007708840083130008FA00F70A12
:102CF400780884007A088000F80AF90B742E5230A0
:102D04000A168A11DC240A168A110A168A11172453
:102D140008000A168A11BE230A168A110A168A1195
:102D2400C3230A168A1178308400831603136108BA
:102D34008000840A62088000840A63088000840A90
:102D440064088000840A65088000840A660880009C
:102D540078300A168A11D7230A168A110A168A119C
:102D6400172408000A168A11BE230A168A110A16A5
:102D74008A11C3230A168A1152308400BE30F70028
:102D84000408F8000A30F900770884008313000867
:102D9400FA00F70A780884007A088000F80AF90B28
:102DA400C62E52300A168A11DC240A168A110A1613
:102DB4008A11172408000A168A11BE230A168A11DA
:102DC4000A168A11C3230A168A1152308400B430B9
:102DD400F7000408F8000A30F90077088400831328
:102DE4000008FA00F70A780884007A088000F80AD4
:102DF400F90BEF2E52300A168A11DC240A168A11B6
:102E04000A168A11172408000A168A11BE230A1604
:102E14008A110A168A11C3230A168A1152308400B1
:102E2400AA30F7000408F8000A30F9007708840093
:102E340083130008FA00F70A780884007A088000EF
:102E4400F80AF90B182F52300A168A11DC240A16D4
:102E54008A110A168A11172408000A168A11BE2339
:102E64000A168A110A168A11C3230A168A115230C5
:102E74008400A030F7000408F8000A30F90077084D
:102E8400840083130008FA00F70A780884007A089B
:102E94008000F80AF90B412F52300A168A11DC24FB
:102EA4000A168A110A168A11172408000A168A11AA
:102EB400BE230A168A110A168A11C3230A168A1116
:102EC40052308400DA30F7000408F8000A30F900C0
:102ED4007708840083170008FA00F70A780884004A
:102EE40083137A088000F80AF90B6A2F52300A1605
:102EF4008A11DC240A168A110A168A11172408007A
:102F04000A168A11BE230A168A110A168A11C323C5
:102F14000A168A1152308400D030F7000408F800F1
:102F24000A30F9007708840083170008FA00F70ACA
:102F34007808840083137A088000F80AF90B942F28
:102F440052300A168A11DC240A168A110A168A11CA
:102F5400172408000A168A11BE230A168A110A16B3
:102F64008A11C3230A168A1152308400C630F7002E
:102F74000408F8000A30F900770884008317000871
:102F8400FA00F70A7808840083137A088000F80AA4
:102F9400F90BBE2F52300A168A11DC240A168A1144
:102FA4000A168A11172408000A168A11BE230A1663
:102FB4008A110A168A11C3230A168A115230840010
:102FC400BC30F7000408F8000A30F90077088400E0
:102FD40083170008FA00F70A7808840083137A0834
:102FE4008000F80AF90BE82F52300A168A11DC2403
:0C2FF4000A168A110A168A111724080018
:02400E00323F3F
:00000001FF
