:060000000A128A11AE2F66
:10000C000A168A11A2230A128A110A168A11A72328
:10001C000A128A11523084009030F7000408F8005C
:10002C000B30F9007708840083170008FA00F70AF0
:10003C007808840083137A088000F80AF90B1828D2
:10004C0052300A168A11D4240A128A110A168A11FD
:10005C00FC2308000A30F0000030F1008312031377
:10006C003D08F900FA017908F2007A08F3000A1247
:10007C008A1500250A128A117008FB007B08FC0007
:10008C000A30F0000030F100831203133D08F90030
:10009C00FA017908F2007A08F3000A128A150E2484
:1000AC000A128A117008FB007B08FD0083120313EF
:1000BC004103031D952838033904031D952803308B
:1000CC003A063B04031D95280130F9007908BD0759
:1000DC000A168A1188240A128A110A168A11A22376
:1000EC000A128A110A168A11A7230A128A117C088D
:1000FC00303E0A168A1135250A128A117D08303EC7
:10010C000A168A1135250A128A110A168A110C242C
:10011C000A128A110A168A110C240A128A11023048
:10012C008312031338063904031D080003303A0602
:10013C003B04031D08000130BD020A168A118824F5
:10014C000A128A110A168A11A2230A128A110A1695
:10015C008A11A7230A128A117C08303E0A168A11CA
:10016C0035250A128A117D08303E0A168A1135256A
:10017C000A128A110A168A110C240A128A110A16FA
:10018C008A110C2408000A168A1188240A128A1172
:10019C000A128A15E1260A128A110A128A157D2280
:1001AC000A128A11831203134C03031DCE280A165C
:1001BC008A11A1250A128A11831203134A03031D03
:1001CC00EC280A128A156B260A128A110A168A1151
:1001DC00C5250A128A11831203134B03031D002930
:1001EC000A128A15B2250A128A110A128A15A92432
:1001FC000A128A110A168A11EA250A128A11831226
:10020C0003134103031D0F290A128A1130200A120D
:10021C008A110A168A117D250A128A118312031378
:10022C004003031D1E290A128A11D1250A128A11B4
:10023C000A168A1159250A128A11831203133F03D5
:10024C00031D2D290A128A11F4230A128A110A1687
:10025C008A11F3240A128A11831203133E03031D1D
:10026C003C290A128A1567270A128A110A168A1162
:10027C002C240A128A110A128A1525230A128A11B1
:10028C000A128A15ED220A128A110A168A11B6244C
:10029C000A128A110A168A119E230A128A118312D3
:1002AC0003133D084E02031CCE284903031DCE2820
:1002BC00C501C50A3C08E700E8016708F0006808BA
:1002CC00F1000A128A15A7210A128A110A168A113C
:1002DC0074240A128A11CE280430831203133806B0
:1002EC003904031D89293A033B04031D8929340869
:1002FC00F9007908B1003508F9007908B20037081F
:10030C00F9007908B3003108F9007908D10065309B
:10031C005102031CA7296430F0000030F100510891
:10032C00F900FA017908F2007A08F3000A128A152A
:10033C0000250A128A117008FB007B088312031334
:10034C00D1003408F9007908D8005808F9000430B5
:10035C000310F90CFF3E031DAE2979080739FA008A
:10036C007A08D20058080F39F9007908D3003508FB
:10037C00F9007908D9005908F90004300310F90C78
:10038C00FF3E031DC42979080739FA007A08D40006
:10039C0059080F39F9007908D5003708F9007908A0
:1003AC00DA005A08F90004300310F90CFF3E031D63
:1003BC00DA2979080739FA007A08D6005A080F3971
:1003CC00F9007908D7000000831203135208303E5D
:1003DC000A168A1135250A128A118312031353083F
:1003EC00303E0A168A1135250A128A113A300A163D
:1003FC008A1135250A128A11831203135408303ED0
:10040C000A168A1135250A128A118312031355080C
:10041C00303E0A168A1135250A128A113A300A160C
:10042C008A1135250A128A11831203135608303E9D
:10043C000A168A1135250A128A11831203135708DA
:10044C00303E0A168A1135250A128A110A168A11AB
:10045C001C240A128A110A168A111C240A128A11E7
:10046C0001300A168A111325080004308312031375
:10047C0038063904031D522A3A033B04031D522A41
:10048C003408F9007908B1003508F9007908B20090
:10049C003708F9007908B3003108F9007908D10060
:1004AC0065305102031C702A6430F0000030F100FA
:1004BC005108F900FA017908F2007A08F3000A12DF
:1004CC008A1500250A128A117008FB007B0883121A
:1004DC000313D1003108F9007908D8005808F90045
:1004EC0004300310F90CFF3E031D772A79080739F5
:1004FC00FA007A08D20058080F39F9007908D300AD
:10050C003208F9007908D9005908F90004300310B1
:10051C00F90CFF3E031D8D2A79080739FA007A0879
:10052C00D40059080F39F9007908D5003308F900BF
:10053C007908DA005A08F90004300310F90CFF3E70
:10054C00031DA32A79080739FA007A08D6005A083D
:10055C000F39F9007908D7000000831203135208F1
:10056C00303E0A168A1135250A128A11831203139A
:10057C005308303E0A168A1135250A128A113A3070
:10058C000A168A1135250A128A118312031354088C
:10059C00303E0A168A1135250A128A11831203136A
:1005AC005508303E0A168A1135250A128A113A303E
:1005BC000A168A1135250A128A118312031356085A
:1005CC00303E0A168A1135250A128A11831203133A
:1005DC005708303E0A168A1135250A128A110A1656
:1005EC008A111C240A128A110A168A111C240A1256
:1005FC008A1101300A168A11132508000A128A156D
:10060C00DA210A128A11CC300A128A1546220A12F1
:10061C008A1144300A128A1546220A128A1146306F
:10062C00F9007908F00002300A168A11DE230A124A
:10063C008A110A128A15DA210A128A11CC300A128E
:10064C008A1546220A128A11BE300A128A154622CF
:10065C000A128A110A128A155D230A128A11F900EC
:10066C00790883120313D0000A128A155D230A122B
:10067C008A11F900790883120313CF004F08F9008F
:10068C0004300310F90DFF3E031D472B5008FA00F0
:10069C0004300310FA0CFF3E031D4F2B7A0879042B
:1006AC00FB007B08CE005008F90003300310F90D55
:1006BC00FF3E031D5C2B0310790DFA007A08D20063
:1006CC0065304E02031C802B6430F0000030F100CA
:1006DC004E08F900FA017908F2007A08F3000A12C0
:1006EC008A1500250A128A117008FB007B088312F8
:1006FC000313CE000A30F0000030F1004E08F90070
:10070C00FA017908F2007A08F3000A128A1500251A
:10071C000A128A117008FB007B0883120313D300A2
:10072C000A30F0000030F1004E08F900FA017908A7
:10073C00F2007A08F3000A128A150E240A128A11A2
:10074C007008FB007B0883120313D400D21FB32B59
:10075C004D08883EF9007908CD00E830F0000330F0
:10076C00F1004D08F900FA017908F2007A08F3005B
:10077C000A128A1500250A128A117008FB007B08E0
:10078C0083120313D5000000831203135308303E69
:10079C000A168A1135250A128A118312031354087A
:1007AC00303E0A168A1135250A128A112E300A1685
:1007BC008A1135250A128A11831203135508303E0B
:1007CC000A168A1135250A128A110A168A11602412
:1007DC000A128A110A168A11602408000A30F000E5
:1007EC000030F100831203133408F900FA01790880
:1007FC00F2007A08F3000A128A1500250A128A11EF
:10080C007008FB007B0883120313D2000A30F0003F
:10081C000030F1003408F900FA017908F2007A0886
:10082C00F3000A128A150E240A128A117008FB00B2
:10083C007B0883120313D3000A30F0000030F10060
:10084C003508F900FA017908F2007A08F3000A1267
:10085C008A1500250A128A117008FB007B08831286
:10086C000313D4000A30F0000030F1003508F90011
:10087C00FA017908F2007A08F3000A128A150E249C
:10088C000A128A117008FB007B0883120313D5002F
:10089C000A30F0000030F1003708F900FA0179084D
:1008AC00F2007A08F3000A128A1500250A128A113E
:1008BC007008FB007B0883120313D6000A30F0008B
:1008CC000030F1003708F900FA017908F2007A08D3
:1008DC00F3000A128A150E240A128A117008FB0002
:1008EC007B0883120313D7003F03031D0800380352
:1008FC003904031DB52C03303A063B04031DB52CFB
:10090C000130F9007908B4070A168A1188240A12F2
:10091C008A110A168A11A2230A128A110A168A113E
:10092C00A7230A128A11831203135208303E0A16A7
:10093C008A1135250A128A11831203135308303E8B
:10094C000A168A1135250A128A110A168A110C24E4
:10095C000A128A110A168A110C240A128A11023000
:10096C008312031338063904031DEE2C03303A06A8
:10097C003B04031DEE2C0130B4020A168A118824A4
:10098C000A128A110A168A11A2230A128A110A164D
:10099C008A11A7230A128A11831203135208303EBC
:1009AC000A168A1135250A128A1183120313530869
:1009BC00303E0A168A1135250A128A110A168A1136
:1009CC000C240A128A110A168A110C240A128A1192
:1009DC008312031338033904031D282D02303A0601
:1009EC003B04031D282D0130F9007908B5070A16C0
:1009FC008A1188240A128A110A168A11A2230A1251
:100A0C008A110A168A11A7230A128A118312031358
:100A1C005408303E0A168A1135250A128A1183129F
:100A2C0003135508303E0A168A1135250A128A110D
:100A3C000A168A110C240A128A110A168A110C241D
:100A4C000A128A1102308312031338063904031D6B
:100A5C00612D02303A063B04031D612D0130B502B5
:100A6C000A168A1188240A128A110A168A11A223DC
:100A7C000A128A110A168A11A7230A128A118312E2
:100A8C0003135408303E0A168A1135250A128A11AE
:100A9C00831203135508303E0A168A1135250A12A3
:100AAC008A110A168A110C240A128A110A168A1142
:100ABC000C240A128A118312031338033904031D00
:100ACC009A2D3A033B04031D9A2D0130F900790845
:100ADC00B7070A168A1188240A128A110A168A1173
:100AEC00A2230A128A110A168A11A7230A128A1142
:100AFC00831203135608303E0A168A1135250A1242
:100B0C008A11831203135708303E0A168A113525B1
:100B1C000A128A110A168A110C240A128A110A1650
:100B2C008A110C240A128A1102308312031338061C
:100B3C003904031D08003A033B04031D080001306F
:100B4C00B7020A168A1188240A128A110A168A1107
:100B5C00A2230A128A110A168A11A7230A128A11D1
:100B6C00831203135608303E0A168A1135250A12D1
:100B7C008A11831203135708303E0A168A11352541
:100B8C000A128A110A168A110C240A128A110A16E0
:100B9C008A110C2408000A30F0000030F100831296
:100BAC0003133108F900FA017908F2007A08F3000E
:100BBC000A128A1500250A128A117008FB007B089C
:100BCC0083120313D2000A30F0000030F100310818
:100BDC00F900FA017908F2007A08F3000A128A1572
:100BEC000E240A128A117008FB007B08831203136F
:100BFC00D3000A30F0000030F1003208F900FA019D
:100C0C007908F2007A08F3000A128A1500250A12F4
:100C1C008A117008FB007B0883120313D4000A307E
:100C2C00F0000030F1003208F900FA017908F20006
:100C3C007A08F3000A128A150E240A128A11700817
:100C4C00FB007B0883120313D5000A30F000003040
:100C5C00F1003308F900FA017908F2007A08F30080
:100C6C000A128A1500250A128A117008FB007B08EB
:100C7C0083120313D6000A30F0000030F100330861
:100C8C00F900FA017908F2007A08F3000A128A15C1
:100C9C000E240A128A117008FB007B0883120313BE
:100CAC00D7004003031D080038033904031D922E9E
:100CBC0003303A063B04031D922E0130F9007908EB
:100CCC00B1070A168A1188240A128A110A168A1187
:100CDC00A2230A128A110A168A11A7230A128A1150
:100CEC00831203135208303E0A168A1135250A1254
:100CFC008A11831203135308303E0A168A113525C4
:100D0C000A128A110A168A110C240A128A110A165E
:100D1C008A110C240A128A1102308312031338062A
:100D2C003904031DCB2E03303A063B04031DCB2E96
:100D3C000130B1020A168A1188240A128A110A1685
:100D4C008A11A2230A128A110A168A11A7230A12DF
:100D5C008A11831203135208303E0A168A11352564
:100D6C000A128A11831203135308303E0A168A1191
:100D7C0035250A128A110A168A110C240A128A11B4
:100D8C000A168A110C240A128A11831203133803CF
:100D9C003904031D052F02303A063B04031D052FB1
:100DAC000130F9007908B2070A168A1188240A1250
:100DBC008A110A168A11A2230A128A110A168A119A
:100DCC00A7230A128A11831203135408303E0A1601
:100DDC008A1135250A128A11831203135508303EE5
:100DEC000A168A1135250A128A110A168A110C2440
:100DFC000A128A110A168A110C240A128A1102305C
:100E0C008312031338063904031D3E2F02303A06B1
:100E1C003B04031D3E2F0130B2020A168A118824AE
:100E2C000A128A110A168A11A2230A128A110A16A8
:100E3C008A11A7230A128A11831203135408303E15
:100E4C000A168A1135250A128A11831203135508C2
:100E5C00303E0A168A1135250A128A110A168A1191
:100E6C000C240A128A110A168A110C240A128A11ED
:100E7C008312031338033904031D772F3A033B0401
:100E8C00031D772F0130F9007908B3070A168A1170
:100E9C0088240A128A110A168A11A2230A128A11AC
:100EAC000A168A11A7230A128A11831203135608F1
:100EBC00303E0A168A1135250A128A118312031341
:100ECC005708303E0A168A1135250A128A110A165D
:100EDC008A110C240A128A110A168A110C240A127D
:100EEC008A1102308312031338063904031D0800DB
:100EFC003A033B04031D08000130B3020A168A11A1
:100F0C0088240A128A110A168A11A2230A128A113B
:100F1C000A168A11A7230A128A1183120313560880
:100F2C00303E0A168A1135250A128A1183120313D0
:100F3C005708303E0A168A1135250A128A110A16EC
:100F4C008A110C240A128A110A168A110C24080020
:100F5C008317EE30FD000E30FE000D30FF00903098
:100F6C0084000A168A1140240A128A116930FD0085
:100F7C000D30FE005930FF00103084000A168A1123
:100F8C0040240A128A118313F030FD000C30FE004D
:100F9C005930FF00A03084000A168A1140240A122E
:100FAC008A112830FD001330FE00CA30FF002030BB
:100FBC0084000A168A1140240A128A116F30FD002F
:100FCC001330FE00BC30FF00693084000A168A1111
:100FDC0040240A128A11A801A901AA01AB01EF0150
:100FEC003130840052300A168A11C22383010A124E
:040FFC008A11C92865
:10100200831603138501FF308312031385008316B1
:1010120003138801FF308312031388000230831602
:101022000313860006309F000F300A168A1113251B
:101032000A128A1501300A168A1113250A128A1514
:1010420038300A168A11132508000A168A11A223BB
:101052000A128A150A168A11A7230A128A15523011
:1010620084005130F8000408F9000C30FA007808C6
:10107200840083170008FB00F80A790884008313B0
:101082007B088000F90AFA0B382852300A168A11B6
:10109200B6230A128A150A168A11FC2308000A16B8
:1010A2008A11A2230A128A150A168A11A7230A1282
:1010B2008A15523084004430F7000408F8000D30DD
:1010C200F9007708840083170008FA00F70A780805
:1010D200840083137A088000F80AF90B62285230E0
:1010E2000A168A11D4240A128A150A168A11FC23B6
:1010F20008000A168A11A2230A128A150A168A11F0
:10110200A7230A128A15523084003730F7000408E8
:10111200F8000D30F9007708840083170008FA0000
:10112200F70A7808840083137A088000F80AF90B1A
:101132008C2852300A168A11D4240A128A150A16E9
:101142008A11FC2308000A168A11A2230A128A15A0
:101152000A168A11A7230A128A15523084002A30ED
:10116200F7000408F8000D30F900770884008317AF
:101172000008FA00F70A7808840083137A088000CE
:10118200F80AF90BB62852300A168A11D4240A1228
:101192008A150A168A11FC2308000A168A11A2234C
:1011A2000A128A150A168A11A7230A128A155230C0
:1011B20084001D30F7000408F8000D30F9007708AC
:1011C200840083170008FA00F70A78088400831362
:1011D2007A088000F80AF90BE02852300A168A11C0
:1011E200D4240A128A150A168A11FC2308000A1648
:1011F2008A11A2230A128A150A168A11A7230A1231
:101202008A1552308400B130F7000408F8000B3020
:10121200F9007708840083170008FA00F70A7808B3
:10122200840083137A088000F80AF90B0A295230E5
:101232000A168A11D4240A128A150A168A11FC2364
:1012420008000A168A11A2230A128A150A168A119E
:10125200A7230A128A1552308400A630F700040828
:10126200F8000B30F9007708840083170008FA00B1
:10127200F70A7808840083137A088000F80AF90BC9
:10128200342952300A168A11D4240A128A150A16EF
:101292008A11FC2308000A168A11A2230A128A154F
:1012A2000A168A11A7230A128A15523084009B302B
:1012B200F7000408F8000B30F90077088400831760
:1012C2000008FA00F70A7808840083137A0880007D
:1012D200F80AF90B5E2952300A168A11D4240A122E
:1012E2008A150A168A11FC230800F400F201F301A0
:1012F2007308803AFF0080307F02031D8229083084
:1013020072020318A329831203130612061074181B
:1013120006167408F0000310700CF1007108F40056
:1013220006140130F2070318F30A0030F3077308BA
:10133200803AFF0080307F02031DA129083072022B
:10134200031C84298312031306100800F301F4011D
:101352007408803AF2007108803A7202031DB329C0
:101362007008730203180800F501F6017608803A46
:10137200FF00E1307F02031DC029A8307502031867
:10138200D3290130F5070318F60A0030F60776086C
:10139200803AFF00E1307F02031DD129A830750297
:1013A200031CC2290130F3070318F40A0030F407C2
:1013B200A929F5017508031D0800831603130510FA
:1013C2008312031305104630F4007408F000023053
:1013D2000A168A11DE230A128A15013083160313B4
:1013E20085000830F4007408F00002300A168A11F1
:1013F200DE230A128A1583120313051C022AF50141
:10140200042AF501F50A3C30F4007408F0000230B9
:101412000A168A11DE230A128A15DB2983120313A4
:101422008616BF300A128A1576210A128A15F6012B
:10143200F7017708803AFF0080307F02031D232ADC
:10144200073076020318422A0A128A15D1230A1299
:101452008A15F5007608313E8400750883138000F2
:101462000130F6070318F70A0030F7077708803AC9
:10147200FF0080307F02031D402A07307602031CE2
:10148200252A8312031386120800F700F801083098
:1014920078020318080077080139F4007408F6008E
:1014A20083160313051083120313051000000000B6
:1014B2000000000000007603031D622A831203135A
:1014C20005140730F4007408F00002300A168A117D
:1014D200DE230A128A158316031305140000000086
:1014E2007708F4000310740CF5007508F70001305A
:1014F200F4007408F807482A0430831203133806EC
:101502003904031D9F2A04303A063B04031D9F2A17
:10151200CC01CC0A0A168A1138260A128A150A1632
:101522008A110C240A128A150A128A1596230A12A3
:101532008A150A168A110C240A128A15033083129C
:10154200031338063904031D080004303A063B042D
:10155200031D0800CC010A168A11D6270A128A1521
:101562000A168A110C240800831203138616BE3051
:101572000A128A1576210A128A15F501F6017608F1
:10158200803AFF0080307F02031DC92A08307502AD
:101592000318E92A7508013E84000A168A11002000
:1015A2000A128A150A128A1576210A128A15013040
:1015B200F5070318F60A0030F6077608803AFF00AE
:1015C20080307F02031DE72A08307502031CCB2AF4
:1015D20083120313861208000330831203133806A2
:1015E2003904031D080002303A063B04031D0800BB
:1015F2004B08031D08004108031D08003E08031D97
:1016020008004008031D08003F08031D08004A089F
:10161200031D08000A168A114D240A128A150A129D
:101622008A1501200A128A150A128A15B5220A128F
:101632008A150A128A150F220A128A150A128A11AB
:1016420072210A128A151A2B0430831203133806E8
:101652003904031D080002303A063B04031D08004A
:101662004B08031D08004108031D08003E08031D26
:1016720008004008031D08003F08031D08004A082F
:10168200031D08000A168A114D240A128A150A122D
:101692008A1501200A128A150A128A15B5220A121F
:1016A2008A150A128A150F220A128A150A128A113B
:1016B2003B220A128A15522BF501F60108307602F6
:1016C2000318942B0310F50C8316031305108312D1
:1016D20003130510000000000000000000000000DD
:1016E2008316031305140000000000000000000030
:1016F200831203136F1005186F14831203136F18EC
:10170200F5170730F4007408F00002300A168A1147
:10171200DE230A128A150130F4007408F607083035
:101722007602031C642B750808000A168A11A72387
:101732000A128A155E308400C830F8000408F900E5
:101742000930FA007808840083130008FB00F80AC5
:10175200790884007B088000F90AFA0BA32B523027
:1017620084005D30F8000408F9000C30FA007808B3
:10177200840083170008FB00F80A790884008313A9
:101782007B088000F90AFA0BB82B5E300A168A1120
:10179200B6230A128A1552300A168A11D223080079
:1017A200831603130616F201F3017308803AFF0051
:1017B20080307F02031DDF2B083072020318062CD3
:1017C2008312031306103008F0000310700CF100AE
:1017D2007108B000061EF12B83120313B017F42B0D
:1017E20083120313B01306140130F2070318F30A2D
:1017F2000030F3077308803AFF0080307F02031D38
:10180200042C08307202031CE12B83160313061208
:1018120083120313061030080800F601F31F182C78
:10182200F209F309F20A0319F30AF601F60AF11FA3
:101832001F2CF009F109F00A0319F10A700871046A
:1018420003194C2CF501F50AF11B332C013003105E
:10185200F00DF10DFF3E031D282C0130F400740839
:10186200F507252C71087302031D392C70087202CA
:10187200031C412C7008F2027108031CF303F302EB
:1018820001300310F10CF00CFF3E031D422C01301D
:10189200F502031D332C76080319542CF209F309BF
:1018A200F20A0319F30A7308F1007208F000080043
:1018B2005A346F346E3465342034333420344F3428
:1018C2004B3400345A346F346E346534203432343D
:1018D20020344F344B3400345A346F346E34653410
:1018E2002034313420344F344B3400345A346F3482
:1018F2006E3465342034303420344F344B34003469
:10190200533465346C346534633474342034613454
:101912000034413463347434693476346134743459
:101922006534003441346C34613472346D342034A3
:101932004F346E3400345A346F346E34653420348C
:101942003034003463346F346C343A34303400341D
:10195200831203134B03031D080038033904031DCC
:10196200C22C03303A063B04031DC22C4903031D5B
:10197200C22C0A128A15F8200A128A15831203133E
:10198200C901023038063904031DD72C03303A0648
:101992003B04031DD72C4803031DD72C0A128A15BA
:1019A20022210A128A1583120313C8010330380652
:1019B2003904031DEC2C03303A063B04031DEC2CC6
:1019C2004703031DEC2C0A128A154C210A128A15B0
:1019D20083120313C701043038063904031D0800BB
:1019E20003303A063B04031D08004603031D0800AA
:1019F2000A128A11062083120313C6010800F60197
:101A0200F11F0A2DF009F109F00A0319F10AF60192
:101A1200F60AF31F152DF209F309F20A0319F30A64
:101A22000130F4007408F606F701F8017008710439
:101A320003194C2DF501F50AF11B2B2D0130031072
:101A4200F00DF10DFF3E031D202D0130F40074084E
:101A5200F5071D2D01300310F70DF80DFF3E031D94
:101A62002C2D71087302031D382D70087202031C9D
:101A7200412D7008F2027108031CF303F30277147C
:101A820001300310F10CF00CFF3E031D422D01301A
:101A9200F502031D2B2D76080319542DF709F809B9
:101AA200F70A0319F80A7808F1007708F00008002D
:101AB200543465346D347034653472346134743442
:101AC2007534723465343A3400345A346F346E34B7
:101AD200653420343334203441346C346534723408
:101AE200743400345A346F346E34653420343234F2
:101AF200203441346C3465347234743400345A34D2
:101B02006F346E34653420343134203441346C34D3
:101B120065347234743400345A346F346E3465343C
:101B220020343034203441346C34653472347434AB
:101B320000344334683461346E346734653420349D
:101B4200543465346D3470340034463475346E3434
:101B52006334743469346F346E342E342E342E343C
:101B62000034831203134B03031D080038033904A6
:101B7200031DCC2D02303A063B04031DCC2D49082F
:101B8200031DCC2D0A168A112E270A128A158312DA
:101B92000313C901C90A023038063904031DE02DB6
:101BA20002303A063B04031DE02D4808031DE02DD8
:101BB200C801C80A0A168A1158270A128A15033060
:101BC2008312031338063904031DF82D02303A0636
:101BD2003B04031DF82D4708031DF82D0A168A1130
:101BE20082270A128A1583120313C701C70A043017
:101BF20038063904031D080002303A063B04031D6F
:101C020008004608031D08000A168A11AC27831231
:101C12000313C601C60A08005A346F346E346534A1
:101C22002034333420344F346634663400345A342A
:101C32006F346E3465342034323420344F34663499
:101C4200663400345A346F346E346534203431349F
:101C520020344F346634663400345A346F346E3470
:101C620065342034303420344F34663466340034E2
:101C72005A346F346E3465342034333420344F3464
:101C82006E3400345A346F346E3465342034323456
:101C920020344F346E3400345A346F346E34653429
:101CA2002034313420344F346E3400345A346F349B
:101CB2006E3465342034303420344F346E34003482
:101CC20041346C34613472346D3420344F346634B0
:101CD200663400348312031338033904031D882E3B
:101CE20002303A063B04031D882E4508031D7E2E52
:101CF2000A168A118A260A128A15831203134503C9
:101D0200031D882E0A128A1550200A128A150230E3
:101D12008312031338063904031DA62E02303A0635
:101D22003B04031DA62E4408031D9C2E0A168A118D
:101D3200B3260A128A15831203134403031DA62E27
:101D42000A128A157A200A128A15033083120313A3
:101D520038063904031DC42E02303A063B04031D23
:101D6200C42E4308031DBA2E0A168A11DC260A1253
:101D72008A15831203134303031DC42E0A128A1504
:101D8200A4200A128A150430831203133806390478
:101D9200031D080002303A063B04031D08004208F6
:101DA200031DD82E0A168A1105270A128A158312D4
:101DB20003134203031D08000A128A15CE200800ED
:101DC200F0010A168A119F240A128A15831203133C
:101DD20007120718F42E0430BA000030BB0001309D
:101DE200B8000030B9008718FE2E0330BA00003068
:101DF200BB000130B8000030B9000719082F0230CB
:101E0200BA000030BB000130B8000030B9008719B9
:101E1200122F0130BA000030BB000130B800003090
:101E2200B900071687120718182F0430232F8718B6
:101E32001C2F0330232F0719202F0230232F87193D
:101E42002A2F0130BA000030BB000230B800003047
:101E5200B900871607130718302F04303B2F871855
:101E6200342F03303B2F0719382F02303B2F8719AD
:101E7200422F0130BA000030BB000330B8000030FE
:101E8200B900071787130718482F0430532F8718F4
:101E92004C2F0330532F0719502F0230532F87191D
:101EA2005A2F0130BA000030BB000430B8000030B5
:101EB200B90087173A083B04031D632F3808390419
:101EC2000319652FF001F00A700808000A30F000CB
:101ED2000030F100831203133C08F900FA0179087B
:101EE200F2007A08F3000A128A1500250A128A15EE
:101EF2007008FB007B08FC000A30F0000030F100A3
:101F0200831203133C08F900FA017908F2007A08F7
:101F1200F3000A128A150E240A128A157008FB00B1
:101F22007B08FD00831203134103031DCC2F3803EA
:101F32003904031DCC2F02303A063B04031DCC2F7B
:101F42000130F9007908BC070A168A1188240A129E
:101F52008A150A168A11A2230A128A150A168A11EA
:101F6200A7230A128A157C08303E0A168A113525E3
:101F72000A128A157D08303E0A168A1135250A1280
:101F82008A150A168A110C240A128A150A168A114F
:101F92000C240A128A1502308312031338063904FC
:101FA200031D080002303A063B04031D08000130FD
:101FB200BC020A168A1188240A128A150A168A1184
:101FC200A2230A128A150A168A11A7230A128A154F
:101FD2007C08303E0A168A1135250A128A157D08B8
:101FE200303E0A168A1135250A128A150A168A11F6
:101FF2000C240A128A150A168A110C2408001030C1
:102002008A000408840A8207003450345934233485
:0A20120008340334063406340034A9
:10273C00831603138601080001300A168A1113252B
:10274C00080002300A168A11132508000F300A16E9
:10275C008A111325080038300A168A11132508002F
:10276C00F70077080A168A11D42408004334683419
:10277C00653463346B34003464008001840A0406CD
:10278C00031900340406C32B72346F3477343A3493
:10279C003034003401341434F700A8300A168A118E
:1027AC0013250A168A1177080A168A11D4240800F0
:1027BC00F2007008F1007108F3000130F302031D00
:1027CC00E32B0130F20203190800DF2BF001F101B9
:1027DC000030710214300319700203180800013024
:1027EC00F0070318F10A0030F107EE2BF001F101AC
:1027FC0061307102A830031970020318080001300F
:10280C00F0070318F10A0030F107FE2BF001F1017B
:10281C00C3307102503003197002031808000130E4
:10282C00F0070318F10A0030F1070E2CF001F1014A
:10283C0001307102F43003197002031808000130E2
:10284C00F0070318F10A0030F1071E2C0230831236
:10285C00031338063904031D080004303A063B0400
:10286C00031D08000A128A11042308007E088A003E
:10287C007F0882003C240A168A118000840A04080E
:10288C007D0603190034FF0A0319FE0A402C83123B
:10289C0003130610861286168E300A128A157621BC
:1028AC000A168A1100300A128A1576218312031334
:1028BC0086120800F001F1017108803AFF008130A6
:1028CC007F02031D6B2CF4307002031808000130DA
:1028DC00F0070318F10A0030F107622C831203137E
:1028EC0086170A168A1160240A168A110A168A118A
:1028FC0060240A168A110A168A11602483120313A3
:10290C00861308000630831603139F00850183127B
:10291C0003138501831603138801831203138801A3
:10292C000A168A11AC230A168A110A168A11B123C7
:10293C0008000630831603139F00850183120313CE
:10294C0085010F30831603138700F03083120313B5
:10295C008700831603138801831203138801080070
:10296C000A168A11A2230A168A110A168A11A7239B
:10297C000A168A118312031338033904031D080045
:10298C0004303A063B04031D0800CB01CA01C10107
:10299C00AA01A901C001BF01BE010800F600F401A3
:1029AC00F50174087607F30073088400831300089C
:1029BC000319080074087607F30073088400831366
:1029CC0000080A168A1135250A168A110130F407F7
:1029DC000318F50A0030F507D72C033083120313C4
:1029EC0038063904031D08003A033B04031D080094
:1029FC004B08031D08004A08031D08004108031D6D
:102A0C0008003E08031D08004008031D08003F088D
:102A1C00031D0800BE01BE0A0800F2008312031356
:102A2C00851005110A168A11EC230A168A118312D5
:102A3C00031385150A168A11EC230A168A117208DB
:102A4C008312031388000A168A11EC230A168A11C2
:102A5C008312031385110A168A11EC230800F20065
:102A6C008312031385018801851405110A168A1136
:102A7C00EC230A168A118312031385150A168A1180
:102A8C00EC230A168A1172088312031388000A16A3
:102A9C008A11EC230A168A118312031385110A1664
:102AAC008A11EC230800043083120313380639040E
:102ABC00031D080003303A063B04031D08004B08B5
:102ACC00031D08004A08031D08002A08031D0800FE
:102ADC002908031D08004108031D08004008031DB8
:102AEC0008003E08031D0800BF01BF0A08000330A0
:102AFC008312031338063904031D080003303A0609
:102B0C003B04031D08004B08031D08004A08031D65
:102B1C0008002A08031D08002908031D08004108A5
:102B2C00031D08003E08031D08003F08031D080094
:102B3C00C001C00A08008312031338033904031DB3
:102B4C0008003A033B04031D08004B08031D080052
:102B5C004108031D08004108031D08003E08031D21
:102B6C0008004008031D08003F08031D08000A1652
:102B7C008A11612683120313CA01CA0A08000230A3
:102B8C008312031338063904031D08003A033B046F
:102B9C00031D08004A08031D08004108031D080016
:102BAC004108031D08003E08031D08004008031DD2
:102BBC0008003F08031D08000A168A110F2683120D
:102BCC000313CB01CB0A0800831203133803390417
:102BDC00031D080002303A063B04031D08004B0895
:102BEC00031D08004A08031D08004108031D0800C6
:102BFC003E08031D08004008031D08003F08031D84
:102C0C0008000A128A15262083120313C101C10A77
:102C1C0008000A168A11A2230A168A110A168A11AA
:102C2C00A7230A168A1152308400D130F700040809
:102C3C00F8000930F9007708840083130008FA00C3
:102C4C00F70A780884007A088000F80AF90B212E1C
:102C5C0052300A168A11D4240A168A110A168A11BD
:102C6C00FC2308000A168A11A2230A168A110A16D6
:102C7C008A11A7230A168A1152308400DA30F70021
:102C8C000408F8000930F900770884008313000861
:102C9C00FA00F70A780884007A088000F80AF90B21
:102CAC004A2E52300A168A11D4240A168A110A1690
:102CBC008A11FC2308000A168A11A2230A168A110B
:102CCC000A168A11A7230A168A11783084008312F7
:102CDC00031369088000840A6A088000840A6B0860
:102CEC008000840A6C088000840A6D088000840AC5
:102CFC006E08800078300A168A11B6230A168A11DB
:102D0C000A168A11FC2308000A168A11A2230A1635
:102D1C008A110A168A11A7230A168A1152308400C6
:102D2C00BE30F7000408F8000A30F9007708840078
:102D3C0083130008FA00F70A780884007A088000E8
:102D4C00F80AF90B9C2E52300A168A11D4240A1652
:102D5C008A110A168A11FC2308000A168A11A2236A
:102D6C000A168A110A168A11A7230A168A115230DA
:102D7C008400B430F7000408F8000A30F900770832
:102D8C00840083130008FA00F70A780884007A0894
:102D9C008000F80AF90BC52E52300A168A11D42479
:102DAC000A168A110A168A11FC2308000A168A11BF
:102DBC00A2230A168A110A168A11A7230A168A1147
:102DCC0052308400AA30F7000408F8000A30F900E9
:102DDC007708840083130008FA00F70A7808840047
:102DEC007A088000F80AF90BEE2E52300A168A1176
:102DFC00D4240A168A110A168A11FC2308000A1612
:102E0C008A11A2230A168A110A168A11A7230A16F6
:102E1C008A1152308400A030F7000408F8000A3000
:102E2C00F9007708840083130008FA00F70A780881
:102E3C0084007A088000F80AF90B172F52300A1612
:102E4C008A11D4240A168A110A168A11FC23080046
:102E5C000A168A11A2230A168A110A168A11A723A6
:102E6C000A168A1152308400DA30F7000408F80090
:102E7C000A30F9007708840083170008FA00F70A73
:102E8C007808840083137A088000F80AF90B402F25
:102E9C0052300A168A11D4240A168A110A168A117B
:102EAC00FC2308000A168A11A2230A168A110A1694
:102EBC008A11A7230A168A1152308400D030F700E9
:102ECC000408F8000A30F90077088400831700081A
:102EDC00FA00F70A7808840083137A088000F80A4D
:102EEC00F90B6A2F52300A168A11D4240A168A1149
:102EFC000A168A11FC2308000A168A11A2230A1644
:102F0C008A110A168A11A7230A168A1152308400D4
:102F1C00C630F7000408F8000A30F900770884007E
:102F2C0083170008FA00F70A7808840083137A08DC
:102F3C008000F80AF90B942F52300A168A11D42407
:102F4C000A168A110A168A11FC2308000A168A111D
:102F5C00A2230A168A110A168A11A7230A168A11A5
:102F6C0052308400BC30F7000408F8000A30F90035
:102F7C007708840083170008FA00F70A78088400A1
:102F8C0083137A088000F80AF90BBE2F52300A1608
:102F9C008A11D4240A168A110A168A11FC230800F5
:102FAC000A168A11A2230A168A110A168A11A72355
:102FBC000A168A1152308400E430F7000408F80035
:102FCC000A30F9007708840083170008FA00F70A22
:102FDC007808840083137A088000F80AF90BE82F2C
:102FEC0052300A168A11D4240A168A110A168A112A
:042FFC00FC230800AA
:02400E00323F3F
:00000001FF
