:100000000A128A11F22F00308A000408840A82073B
:10001000003450345934233408340334063406345D
:020020000034AA
:100AF200831203130610861286168E300A128A118A
:100B02000A2683120313861208006430F0000030B4
:100B1200F100FF30F0070318F10AFF30F107700A05
:100B2200031D8A2D710A031908008A2DF20083120F
:100B320003138514051185110A128A1186250A12DA
:100B42008A11831203138515720888000A128A110A
:100B520086258312031385110800F2008312031302
:100B62008510051185110A128A1186250A128A1129
:100B7200831203138515720888000A128A118625CA
:100B820083120313851108000A128A11E5250A123D
:100B92008A110A128A1179250A128A110A128A11F5
:100BA20072260A128A1101300A128A11AE250A121D
:100BB2008A110A128A113B260A128A110A128A1112
:100BC20040270A128A11D42D831603138501FF30A0
:100BD200831203138500831603138801FF308312E7
:100BE20003138800023083160313860006309F0029
:100BF2000F300A128A11AE250A128A1101300A1226
:100C02008A11AE250A128A1138300A128A11AE25CB
:100C12000800F400F201F3017308803AFF0080300B
:100C22007F02031D162E083072020318372E83121C
:100C3200031306120610741806167408F000031047
:100C4200700CF1007108F40006140130F207031869
:100C5200F30A0030F3077308803AFF0080307F0206
:100C6200031D352E08307202031C182E8312031343
:100C720006100800831203138616BF300A128A1167
:100C82000A260A128A11F601F7017708803AFF0054
:100C920080307F02031D4F2E0730760203186E2E1E
:100CA2000A128A11AA260A128A11F50076083A3E19
:100CB20084007508831380000130F6070318F70AD1
:100CC2000030F7077708803AFF0080307F02031D6B
:100CD2006C2E07307602031C512E831203138612E8
:100CE2000800831203138616BE300A128A110A26DE
:100CF2000A128A11F501F6017608803AFF00803067
:100D02007F02031D862E083075020318A62E750871
:100D1200013E84000A128A1103200A128A110A1261
:100D22008A110A260A128A110130F5070318F60AF7
:100D32000030F6077608803AFF0080307F02031DFC
:100D4200A42E08307502031C882E83120313861208
:100D52000800831603130616F201F3017308803AA2
:100D6200FF0080307F02031DB82E08307202031884
:100D7200DF2E8312031306103008F0000310700CEC
:100D8200F1007108B000061ECA2E83120313B017B9
:100D9200CD2E83120313B01306140130F207031889
:100DA200F30A0030F3077308803AFF0080307F02B5
:100DB200031DDD2E08307202031CBA2E83160313A4
:100DC200061283120313061030080800F601F11F01
:100DD200F12EF009F109F00A0319F10AF601F60AF7
:100DE200F31FFC2EF209F309F20A0319F30A013088
:100DF200F4007408F606F701F8017008710403198B
:100E0200332FF501F50AF11B122F01300310F00DFB
:100E1200F10DFF3E031D072F0130F4007408F507A2
:100E2200042F01300310F70DF80DFF3E031D132FA1
:100E320071087302031D1F2F70087202031C282FF2
:100E42007008F2027108031CF303F30277140130F5
:100E52000310F10CF00CFF3E031D292F0130F502A7
:100E6200031D122F760803193B2FF709F809F70A19
:100E72000319F80A7808F1007708F00008008312D5
:100E820003138618502F3D08F9007908BA003E086E
:100E9200F9007908BB004008F9007908BC003A085B
:100EA200F9007908C10065304102031C6E2F6430DD
:100EB200F0000030F1004108F900FA017908F2006F
:100EC2007A08F3000A128A11E7260A128A117008B8
:100ED200FB007B0883120313C1003A08F90079086A
:100EE200B7003708F90004300310F90CFF3E031D68
:100EF200752F79080739FA007A08B10037080F39D7
:100F0200F9007908B2003B08F9007908B8003808FE
:100F1200F90004300310F90CFF3E031D8B2F7908F2
:100F22000739FA007A08B30038080F39F90079084E
:100F3200B4003C08F9007908B9003908F900043016
:100F42000310F90CFF3E031DA12F79080739FA009F
:100F52007A08B50039080F39F9007908B60000009F
:100F6200831203133108303E0A128A1197250A129E
:100F72008A11831203133208303E0A128A1197250E
:100F82000A128A113A300A128A1197250A128A1114
:100F9200831203133308303E0A128A1197250A126C
:100FA2008A11831203133408303E0A128A119725DC
:100FB2000A128A113A300A128A1197250A128A11E4
:100FC200831203133508303E0A128A1197250A123A
:100FD2008A11831203133608303E0A128A119725AA
:100FE200080083120313BA01BB01BC01BD01BE019B
:0E0FF200BF01C001C10183010A128A11C52D81
:02400E00323F3F
:00000001FF
